{
  "_format": "hh-sol-artifact-1",
  "contractName": "SingleSwapToken",
  "sourceName": "contracts/SwapToken.sol",
  "abi": [
    {
      "inputs": [],
      "name": "DAI",
      "outputs": [
        {
          "internalType": "address",
          "name": "",
          "type": "address"
        }
      ],
      "stateMutability": "view",
      "type": "function"
    },
    {
      "inputs": [],
      "name": "USDC",
      "outputs": [
        {
          "internalType": "address",
          "name": "",
          "type": "address"
        }
      ],
      "stateMutability": "view",
      "type": "function"
    },
    {
      "inputs": [],
      "name": "WETH9",
      "outputs": [
        {
          "internalType": "address",
          "name": "",
          "type": "address"
        }
      ],
      "stateMutability": "view",
      "type": "function"
    },
    {
      "inputs": [
        {
          "internalType": "uint256",
          "name": "amountIn",
          "type": "uint256"
        }
      ],
      "name": "swapExactInputSingle",
      "outputs": [
        {
          "internalType": "uint256",
          "name": "amountOut",
          "type": "uint256"
        }
      ],
      "stateMutability": "nonpayable",
      "type": "function"
    },
    {
      "inputs": [
        {
          "internalType": "uint256",
          "name": "amountOut",
          "type": "uint256"
        },
        {
          "internalType": "uint256",
          "name": "amountInMaximum",
          "type": "uint256"
        }
      ],
      "name": "swapExactOutputSingle",
      "outputs": [
        {
          "internalType": "uint256",
          "name": "amountIn",
          "type": "uint256"
        }
      ],
      "stateMutability": "nonpayable",
      "type": "function"
    },
    {
      "inputs": [],
      "name": "swapRouter",
      "outputs": [
        {
          "internalType": "contract ISwapRouter",
          "name": "",
          "type": "address"
        }
      ],
      "stateMutability": "view",
      "type": "function"
    }
  ],
  "bytecode": "0x6080604052348015600f57600080fd5b50610c4f8061001f6000396000f3fe608060405234801561001057600080fd5b50600436106100725760003560e01c8063c31c9c0711610050578063c31c9c07146100e3578063c4b69a181461010b578063e0bab4c41461011e57600080fd5b80634aa4a4fc1461007757806373bd43ad146100a857806389a30271146100c8575b600080fd5b61009273c02aaa39b223fe8d0a0e5c4f27ead9083c756cc281565b60405161009f9190610852565b60405180910390f35b6100bb6100b636600461087b565b610139565b60405161009f91906108aa565b61009273a0b86991c6218b36c1d19d4a2e9eb0ce3606eb4881565b6100fe73e592427a0aece92de3edee1f18e0157c0586156481565b60405161009f91906108f5565b6100bb610119366004610903565b61028b565b610092736b175474e89094c44da98b954eedeac495271d0f81565b600061015b73c02aaa39b223fe8d0a0e5c4f27ead9083c756cc2333085610443565b61018e73c02aaa39b223fe8d0a0e5c4f27ead9083c756cc273e592427a0aece92de3edee1f18e0157c0586156484610598565b604080516101008101825273c02aaa39b223fe8d0a0e5c4f27ead9083c756cc28152736b175474e89094c44da98b954eedeac495271d0f6020820152610bb88183015233606082015242608082015260a08101849052600060c0820181905260e082015290517f414bf38900000000000000000000000000000000000000000000000000000000815273e592427a0aece92de3edee1f18e0157c058615649063414bf38990610241908490600401610a04565b6020604051808303816000875af1158015610260573d6000803e3d6000fd5b505050506040513d601f19601f820116820180604052508101906102849190610a1e565b9392505050565b60006102ad73c02aaa39b223fe8d0a0e5c4f27ead9083c756cc2333085610443565b6102e073c02aaa39b223fe8d0a0e5c4f27ead9083c756cc273e592427a0aece92de3edee1f18e0157c0586156484610598565b604080516101008101825273c02aaa39b223fe8d0a0e5c4f27ead9083c756cc28152736b175474e89094c44da98b954eedeac495271d0f6020820152610bb88183015233606082015242608082015260a0810185905260c08101849052600060e082015290517fdb3e219800000000000000000000000000000000000000000000000000000000815273e592427a0aece92de3edee1f18e0157c058615649063db3e219890610393908490600401610a04565b6020604051808303816000875af11580156103b2573d6000803e3d6000fd5b505050506040513d601f19601f820116820180604052508101906103d69190610a1e565b91508282101561043c5761041473c02aaa39b223fe8d0a0e5c4f27ead9083c756cc273e592427a0aece92de3edee1f18e0157c058615646000610598565b61043c73c02aaa39b223fe8d0a0e5c4f27ead9083c756cc2336104378587610a6e565b6106e1565b5092915050565b6000808573ffffffffffffffffffffffffffffffffffffffff166323b872dd60e01b86868660405160240161047a93929190610a81565b60408051601f198184030181529181526020820180517bffffffffffffffffffffffffffffffffffffffffffffffffffffffff167fffffffff000000000000000000000000000000000000000000000000000000009094169390931790925290516104e59190610aef565b6000604051808303816000865af19150503d8060008114610522576040519150601f19603f3d011682016040523d82523d6000602084013e610527565b606091505b50915091508180156105515750805115806105515750808060200190518101906105519190610b0e565b610590576040517f08c379a000000000000000000000000000000000000000000000000000000000815260040161058790610b66565b60405180910390fd5b505050505050565b6000808473ffffffffffffffffffffffffffffffffffffffff1663095ea7b360e01b85856040516024016105cd929190610b76565b60408051601f198184030181529181526020820180517bffffffffffffffffffffffffffffffffffffffffffffffffffffffff167fffffffff000000000000000000000000000000000000000000000000000000009094169390931790925290516106389190610aef565b6000604051808303816000865af19150503d8060008114610675576040519150601f19603f3d011682016040523d82523d6000602084013e61067a565b606091505b50915091508180156106a45750805115806106a45750808060200190518101906106a49190610b0e565b6106da576040517f08c379a000000000000000000000000000000000000000000000000000000000815260040161058790610bc5565b5050505050565b6000808473ffffffffffffffffffffffffffffffffffffffff1663a9059cbb60e01b8585604051602401610716929190610b76565b60408051601f198184030181529181526020820180517bffffffffffffffffffffffffffffffffffffffffffffffffffffffff167fffffffff000000000000000000000000000000000000000000000000000000009094169390931790925290516107819190610aef565b6000604051808303816000865af19150503d80600081146107be576040519150601f19603f3d011682016040523d82523d6000602084013e6107c3565b606091505b50915091508180156107ed5750805115806107ed5750808060200190518101906107ed9190610b0e565b6106da576040517f08c379a000000000000000000000000000000000000000000000000000000000815260040161058790610c09565b600073ffffffffffffffffffffffffffffffffffffffff82165b92915050565b61084c81610823565b82525050565b6020810161083d8284610843565b805b811461086d57600080fd5b50565b803561083d81610860565b60006020828403121561089057610890600080fd5b600061089c8484610870565b949350505050565b8061084c565b6020810161083d82846108a4565b600073ffffffffffffffffffffffffffffffffffffffff821661083d565b600061083d826108b8565b600061083d826108d6565b61084c816108e1565b6020810161083d82846108ec565b6000806040838503121561091957610919600080fd5b60006109258585610870565b925050602061093685828601610870565b9150509250929050565b62ffffff811661084c565b73ffffffffffffffffffffffffffffffffffffffff811661084c565b80516101008301906109798482610843565b50602082015161098c6020850182610843565b50604082015161099f6040850182610940565b5060608201516109b26060850182610843565b5060808201516109c560808501826108a4565b5060a08201516109d860a08501826108a4565b5060c08201516109eb60c08501826108a4565b5060e08201516109fe60e085018261094b565b50505050565b610100810161083d8284610967565b805161083d81610860565b600060208284031215610a3357610a33600080fd5b600061089c8484610a13565b7f4e487b7100000000000000000000000000000000000000000000000000000000600052601160045260246000fd5b8181038181111561083d5761083d610a3f565b60608101610a8f8286610843565b610a9c6020830185610843565b61089c60408301846108a4565b60005b83811015610ac4578181015183820152602001610aac565b50506000910152565b6000610ad7825190565b610ae5818560208601610aa9565b9290920192915050565b60006102848284610acd565b801515610862565b805161083d81610afb565b600060208284031215610b2357610b23600080fd5b600061089c8484610b03565b600381526000602082017f5354460000000000000000000000000000000000000000000000000000000000815291505b5060200190565b6020808252810161083d81610b2f565b60408101610b848285610843565b61028460208301846108a4565b600281526000602082017f534100000000000000000000000000000000000000000000000000000000000081529150610b5f565b6020808252810161083d81610b91565b600281526000602082017f535400000000000000000000000000000000000000000000000000000000000081529150610b5f565b6020808252810161083d81610bd556fea2646970667358221220899cc648989f8368aa1c82b8fc8102d45116da21cd63374c56bb31f0533e391c64736f6c634300081c0033",
  "linkReferences": {},
  "deployedLinkReferences": {}
}