{
  "_format": "hh-sol-artifact-1",
  "contractName": "SingleSwapToken",
  "sourceName": "contracts/SwapToken.sol",
  "abi": [
    {
      "inputs": [],
      "name": "DAI",
      "outputs": [
        {
          "internalType": "address",
          "name": "",
          "type": "address"
        }
      ],
      "stateMutability": "view",
      "type": "function"
    },
    {
      "inputs": [],
      "name": "USDC",
      "outputs": [
        {
          "internalType": "address",
          "name": "",
          "type": "address"
        }
      ],
      "stateMutability": "view",
      "type": "function"
    },
    {
      "inputs": [],
      "name": "WETH9",
      "outputs": [
        {
          "internalType": "address",
          "name": "",
          "type": "address"
        }
      ],
      "stateMutability": "view",
      "type": "function"
    },
    {
      "inputs": [
        {
          "internalType": "uint256",
          "name": "amountIn",
          "type": "uint256"
        }
      ],
      "name": "swapExactInputString",
      "outputs": [
        {
          "internalType": "uint256",
          "name": "amountOut",
          "type": "uint256"
        }
      ],
      "stateMutability": "nonpayable",
      "type": "function"
    },
    {
      "inputs": [
        {
          "internalType": "uint256",
          "name": "amountOut",
          "type": "uint256"
        },
        {
          "internalType": "uint256",
          "name": "amountInMaximum",
          "type": "uint256"
        }
      ],
      "name": "swapExactOutputSingle",
      "outputs": [
        {
          "internalType": "uint256",
          "name": "amountIn",
          "type": "uint256"
        }
      ],
      "stateMutability": "nonpayable",
      "type": "function"
    },
    {
      "inputs": [],
      "name": "swapRouter",
      "outputs": [
        {
          "internalType": "contract ISwapRouter",
          "name": "",
          "type": "address"
        }
      ],
      "stateMutability": "view",
      "type": "function"
    }
  ],
  "bytecode": "0x6080604052348015600f57600080fd5b50610c1d8061001f6000396000f3fe608060405234801561001057600080fd5b50600436106100725760003560e01c8063c31c9c0711610050578063c31c9c07146100e3578063c4b69a181461010b578063e0bab4c41461011e57600080fd5b80633a41fc6f146100775780634aa4a4fc146100a057806389a30271146100c8575b600080fd5b61008a610085366004610830565b610139565b6040516100979190610861565b60405180910390f35b6100bb73c02aaa39b223fe8d0a0e5c4f27ead9083c756cc281565b6040516100979190610896565b6100bb73a0b86991c6218b36c1d19d4a2e9eb0ce3606eb4881565b6100fe73e592427a0aece92de3edee1f18e0157c0586156481565b60405161009791906108c3565b61008a6101193660046108d1565b61028b565b6100bb736b175474e89094c44da98b954eedeac495271d0f81565b600061015b73c02aaa39b223fe8d0a0e5c4f27ead9083c756cc233308561042f565b61018e73c02aaa39b223fe8d0a0e5c4f27ead9083c756cc273e592427a0aece92de3edee1f18e0157c0586156484610584565b604080516101008101825273c02aaa39b223fe8d0a0e5c4f27ead9083c756cc28152736b175474e89094c44da98b954eedeac495271d0f6020820152610bb88183015233606082015242608082015260a08101849052600060c0820181905260e082015290517f414bf38900000000000000000000000000000000000000000000000000000000815273e592427a0aece92de3edee1f18e0157c058615649063414bf389906102419084906004016109d2565b6020604051808303816000875af1158015610260573d6000803e3d6000fd5b505050506040513d601f19601f8201168201806040525081019061028491906109ec565b9392505050565b60006102ad73c02aaa39b223fe8d0a0e5c4f27ead9083c756cc233308561042f565b6102cc73c02aaa39b223fe8d0a0e5c4f27ead9083c756cc23084610584565b604080516101008101825273c02aaa39b223fe8d0a0e5c4f27ead9083c756cc28152736b175474e89094c44da98b954eedeac495271d0f6020820152610bb88183015233606082015242608082015260a0810185905260c08101849052600060e082015290517fdb3e219800000000000000000000000000000000000000000000000000000000815273e592427a0aece92de3edee1f18e0157c058615649063db3e21989061037f9084906004016109d2565b6020604051808303816000875af115801561039e573d6000803e3d6000fd5b505050506040513d601f19601f820116820180604052508101906103c291906109ec565b9150828210156104285761040073c02aaa39b223fe8d0a0e5c4f27ead9083c756cc273e592427a0aece92de3edee1f18e0157c058615646000610584565b61042873c02aaa39b223fe8d0a0e5c4f27ead9083c756cc2336104238587610a3c565b6106cd565b5092915050565b6000808573ffffffffffffffffffffffffffffffffffffffff166323b872dd60e01b86868660405160240161046693929190610a4f565b60408051601f198184030181529181526020820180517bffffffffffffffffffffffffffffffffffffffffffffffffffffffff167fffffffff000000000000000000000000000000000000000000000000000000009094169390931790925290516104d19190610abd565b6000604051808303816000865af19150503d806000811461050e576040519150601f19603f3d011682016040523d82523d6000602084013e610513565b606091505b509150915081801561053d57508051158061053d57508080602001905181019061053d9190610adc565b61057c576040517f08c379a000000000000000000000000000000000000000000000000000000000815260040161057390610b34565b60405180910390fd5b505050505050565b6000808473ffffffffffffffffffffffffffffffffffffffff1663095ea7b360e01b85856040516024016105b9929190610b44565b60408051601f198184030181529181526020820180517bffffffffffffffffffffffffffffffffffffffffffffffffffffffff167fffffffff000000000000000000000000000000000000000000000000000000009094169390931790925290516106249190610abd565b6000604051808303816000865af19150503d8060008114610661576040519150601f19603f3d011682016040523d82523d6000602084013e610666565b606091505b50915091508180156106905750805115806106905750808060200190518101906106909190610adc565b6106c6576040517f08c379a000000000000000000000000000000000000000000000000000000000815260040161057390610b93565b5050505050565b6000808473ffffffffffffffffffffffffffffffffffffffff1663a9059cbb60e01b8585604051602401610702929190610b44565b60408051601f198184030181529181526020820180517bffffffffffffffffffffffffffffffffffffffffffffffffffffffff167fffffffff0000000000000000000000000000000000000000000000000000000090941693909317909252905161076d9190610abd565b6000604051808303816000865af19150503d80600081146107aa576040519150601f19603f3d011682016040523d82523d6000602084013e6107af565b606091505b50915091508180156107d95750805115806107d95750808060200190518101906107d99190610adc565b6106c6576040517f08c379a000000000000000000000000000000000000000000000000000000000815260040161057390610bd7565b805b811461081c57600080fd5b50565b803561082a8161080f565b92915050565b60006020828403121561084557610845600080fd5b6000610851848461081f565b949350505050565b805b82525050565b6020810161082a8284610859565b600073ffffffffffffffffffffffffffffffffffffffff821661082a565b61085b8161086f565b6020810161082a828461088d565b600061082a8261086f565b600061082a826108a4565b61085b816108af565b6020810161082a82846108ba565b600080604083850312156108e7576108e7600080fd5b60006108f3858561081f565b92505060206109048582860161081f565b9150509250929050565b62ffffff811661085b565b73ffffffffffffffffffffffffffffffffffffffff811661085b565b8051610100830190610947848261088d565b50602082015161095a602085018261088d565b50604082015161096d604085018261090e565b506060820151610980606085018261088d565b5060808201516109936080850182610859565b5060a08201516109a660a0850182610859565b5060c08201516109b960c0850182610859565b5060e08201516109cc60e0850182610919565b50505050565b610100810161082a8284610935565b805161082a8161080f565b600060208284031215610a0157610a01600080fd5b600061085184846109e1565b7f4e487b7100000000000000000000000000000000000000000000000000000000600052601160045260246000fd5b8181038181111561082a5761082a610a0d565b60608101610a5d828661088d565b610a6a602083018561088d565b6108516040830184610859565b60005b83811015610a92578181015183820152602001610a7a565b50506000910152565b6000610aa5825190565b610ab3818560208601610a77565b9290920192915050565b60006102848284610a9b565b801515610811565b805161082a81610ac9565b600060208284031215610af157610af1600080fd5b60006108518484610ad1565b600381526000602082017f5354460000000000000000000000000000000000000000000000000000000000815291505b5060200190565b6020808252810161082a81610afd565b60408101610b52828561088d565b6102846020830184610859565b600281526000602082017f534100000000000000000000000000000000000000000000000000000000000081529150610b2d565b6020808252810161082a81610b5f565b600281526000602082017f535400000000000000000000000000000000000000000000000000000000000081529150610b2d565b6020808252810161082a81610ba356fea26469706673582212206704fe9373ca289b8bd0803b55b243343f4c33cf1bcc79dfc53090ba31887e0964736f6c634300081c0033",
  "linkReferences": {},
  "deployedLinkReferences": {}
}