{
  "_format": "hh-sol-artifact-1",
  "contractName": "SwapMultiHop",
  "sourceName": "contracts/SwapMultiHop.sol",
  "abi": [
    {
      "inputs": [],
      "name": "DAI",
      "outputs": [
        {
          "internalType": "address",
          "name": "",
          "type": "address"
        }
      ],
      "stateMutability": "view",
      "type": "function"
    },
    {
      "inputs": [],
      "name": "USDC",
      "outputs": [
        {
          "internalType": "address",
          "name": "",
          "type": "address"
        }
      ],
      "stateMutability": "view",
      "type": "function"
    },
    {
      "inputs": [],
      "name": "WETH9",
      "outputs": [
        {
          "internalType": "address",
          "name": "",
          "type": "address"
        }
      ],
      "stateMutability": "view",
      "type": "function"
    },
    {
      "inputs": [
        {
          "internalType": "uint256",
          "name": "amountIn",
          "type": "uint256"
        }
      ],
      "name": "swapExactInputMultihop",
      "outputs": [
        {
          "internalType": "uint256",
          "name": "amountOut",
          "type": "uint256"
        }
      ],
      "stateMutability": "nonpayable",
      "type": "function"
    },
    {
      "inputs": [
        {
          "internalType": "uint256",
          "name": "amountOut",
          "type": "uint256"
        },
        {
          "internalType": "uint256",
          "name": "amountInMaximum",
          "type": "uint256"
        }
      ],
      "name": "swapExactOutputMultihop",
      "outputs": [
        {
          "internalType": "uint256",
          "name": "amountIn",
          "type": "uint256"
        }
      ],
      "stateMutability": "nonpayable",
      "type": "function"
    },
    {
      "inputs": [],
      "name": "swapRouter",
      "outputs": [
        {
          "internalType": "contract ISwapRouter",
          "name": "",
          "type": "address"
        }
      ],
      "stateMutability": "view",
      "type": "function"
    }
  ],
  "bytecode": "0x6080604052348015600f57600080fd5b50610b8b8061001f6000396000f3fe608060405234801561001057600080fd5b50600436106100725760003560e01c8063c31c9c0711610050578063c31c9c07146100e3578063e0bab4c41461010b578063edd835571461012657600080fd5b80633b85cf6a146100775780634aa4a4fc146100a057806389a30271146100c8575b600080fd5b61008a610085366004610769565b610139565b60405161009791906107ae565b60405180910390f35b6100bb73c02aaa39b223fe8d0a0e5c4f27ead9083c756cc281565b60405161009791906107e3565b6100bb73a0b86991c6218b36c1d19d4a2e9eb0ce3606eb4881565b6100fe73e592427a0aece92de3edee1f18e0157c0586156481565b6040516100979190610810565b6100bb736b175474e89094c44da98b954eedeac495271d0f81565b61008a61013436600461081e565b61031c565b600061015b73c02aaa39b223fe8d0a0e5c4f27ead9083c756cc23330856104aa565b61018e73c02aaa39b223fe8d0a0e5c4f27ead9083c756cc273e592427a0aece92de3edee1f18e0157c05861564846105ff565b6040805160a08101909152600090806101ed736b175474e89094c44da98b954eedeac495271d0f606473a0b86991c6218b36c1d19d4a2e9eb0ce3606eb48610bb873c02aaa39b223fe8d0a0e5c4f27ead9083c756cc260c08701610889565b60408051601f198184030181529181529082523360208301524282820152606082018790526080909101859052517ff28c049800000000000000000000000000000000000000000000000000000000815290915073e592427a0aece92de3edee1f18e0157c058615649063f28c04989061026b9084906004016109a6565b6020604051808303816000875af115801561028a573d6000803e3d6000fd5b505050506040513d601f19601f820116820180604052508101906102ae91906109c2565b915082821015610315576102ec73c02aaa39b223fe8d0a0e5c4f27ead9083c756cc273e592427a0aece92de3edee1f18e0157c0586156460006105ff565b61031573c02aaa39b223fe8d0a0e5c4f27ead9083c756cc230336103108688610a12565b6104aa565b5092915050565b600061033e73c02aaa39b223fe8d0a0e5c4f27ead9083c756cc23330856104aa565b61037173c02aaa39b223fe8d0a0e5c4f27ead9083c756cc273e592427a0aece92de3edee1f18e0157c05861564846105ff565b6040805160a08101909152600090806103d073c02aaa39b223fe8d0a0e5c4f27ead9083c756cc2610bb873a0b86991c6218b36c1d19d4a2e9eb0ce3606eb486064736b175474e89094c44da98b954eedeac495271d0f60c08701610889565b60405160208183030381529060405281526020013373ffffffffffffffffffffffffffffffffffffffff1681526020014281526020018481526020016000815250905073e592427a0aece92de3edee1f18e0157c0586156473ffffffffffffffffffffffffffffffffffffffff1663c04b8d59826040518263ffffffff1660e01b815260040161046091906109a6565b6020604051808303816000875af115801561047f573d6000803e3d6000fd5b505050506040513d601f19601f820116820180604052508101906104a391906109c2565b9392505050565b6000808573ffffffffffffffffffffffffffffffffffffffff166323b872dd60e01b8686866040516024016104e193929190610a25565b60408051601f198184030181529181526020820180517bffffffffffffffffffffffffffffffffffffffffffffffffffffffff167fffffffff0000000000000000000000000000000000000000000000000000000090941693909317909252905161054c9190610a6f565b6000604051808303816000865af19150503d8060008114610589576040519150601f19603f3d011682016040523d82523d6000602084013e61058e565b606091505b50915091508180156105b85750805115806105b85750808060200190518101906105b89190610a8e565b6105f7576040517f08c379a00000000000000000000000000000000000000000000000000000000081526004016105ee90610ae6565b60405180910390fd5b505050505050565b6000808473ffffffffffffffffffffffffffffffffffffffff1663095ea7b360e01b8585604051602401610634929190610af6565b60408051601f198184030181529181526020820180517bffffffffffffffffffffffffffffffffffffffffffffffffffffffff167fffffffff0000000000000000000000000000000000000000000000000000000090941693909317909252905161069f9190610a6f565b6000604051808303816000865af19150503d80600081146106dc576040519150601f19603f3d011682016040523d82523d6000602084013e6106e1565b606091505b509150915081801561070b57508051158061070b57508080602001905181019061070b9190610a8e565b610741576040517f08c379a00000000000000000000000000000000000000000000000000000000081526004016105ee90610b45565b5050505050565b805b811461075557600080fd5b50565b803561076381610748565b92915050565b6000806040838503121561077f5761077f600080fd5b600061078b8585610758565b925050602061079c85828601610758565b9150509250929050565b805b82525050565b6020810161076382846107a6565b600073ffffffffffffffffffffffffffffffffffffffff8216610763565b6107a8816107bc565b6020810161076382846107da565b6000610763826107bc565b6000610763826107f1565b6107a8816107fc565b602081016107638284610807565b60006020828403121561083357610833600080fd5b600061083f8484610758565b949350505050565b60006107638260601b90565b600061076382610847565b6107a861086a826107bc565b610853565b60006107638260e81b90565b6107a862ffffff821661086f565b6000610895828861085e565b6014820191506108a5828761087b565b6003820191506108b5828661085e565b6014820191506108c5828561087b565b6003820191506108d5828461085e565b5060140195945050505050565b60005b838110156108fd5781810151838201526020016108e5565b50506000910152565b6000610910825190565b8084526020840193506109278185602086016108e2565b601f01601f19169290920192915050565b805160a0808452600091908401906109508282610906565b915050602083015161096560208601826107da565b50604083015161097860408601826107a6565b50606083015161098b60608601826107a6565b50608083015161099e60808601826107a6565b509392505050565b602080825281016104a38184610938565b805161076381610748565b6000602082840312156109d7576109d7600080fd5b600061083f84846109b7565b7f4e487b7100000000000000000000000000000000000000000000000000000000600052601160045260246000fd5b81810381811115610763576107636109e3565b60608101610a3382866107da565b610a4060208301856107da565b61083f60408301846107a6565b6000610a57825190565b610a658185602086016108e2565b9290920192915050565b60006104a38284610a4d565b80151561074a565b805161076381610a7b565b600060208284031215610aa357610aa3600080fd5b600061083f8484610a83565b600381526000602082017f5354460000000000000000000000000000000000000000000000000000000000815291505b5060200190565b6020808252810161076381610aaf565b60408101610b0482856107da565b6104a360208301846107a6565b600281526000602082017f534100000000000000000000000000000000000000000000000000000000000081529150610adf565b6020808252810161076381610b1156fea2646970667358221220c6cd7ab7e9e30612caeba6818b3730cf8ba64c9c94f339a35d725e28bfa9508b64736f6c634300081c0033",
  "linkReferences": {},
  "deployedLinkReferences": {}
}